:10000000018A9B2982281F30B300B30B052800000A
:1000100000000800F830B3000000B30B0C2800000B
:10002000000000000800B4000A20B40B14280800E7
:10003000B50064301320B50B192808009F149F1CCD
:100040001F281E08080006080139B60014301320C6
:10005000060801393606031D23283608080008085B
:10006000B80088013808C039880008161E20C03939
:10007000B700B71B4328371B4028081401304A2813
:10008000881402304A28371B4828081504304A28AB
:1000900088150830B700232006183128880103305E
:1000A00018203708880004301820880103301820F1
:1000B00038088800370808000808B80088013808A0
:1000C000C039880008161E20C039B7000310B70CCD
:1000D000B70CB70CB70CB70CB70C0808FC393704D1
:1000E0008800232006185E2888010330182037086E
:1000F0008800043018208801033018203808880050
:10010000370808008B1C86288C208B100B1D8B2831
:10011000BF2093200B1109002118EE20A1181D21EA
:100120002119382108002208210203192314211C57
:10013000A32823189D282514BB2827082602031965
:100140002514A70ABB28A11CAF282318A928A51489
:10015000BB282C082B020319A514AC0ABB28211DAF
:10016000BB282318B5282515BB28320831020319EE
:100170002515B20ABB2823102108A20008009F14ED
:100180009F18C028031383124D301E020318D6286F
:100190000130A1000313831663309200031383120E
:1001A0004C309700031383121215ED2803138312AA
:1001B000AA301E020318E5280230A100031383129F
:1001C0001211031383129701ED280430A1000313C9
:1001D0008312121103138312970108000313831271
:1001E0001211031383129701403088000313831206
:1001F0002F20A00020180130A01802302019033051
:10020000A0190430A6002F20A00020180030A0184C
:100210000F3020191E30A0192D30A80095002F2076
:10022000A00020183730A018463020195530A019EA
:100230006430A9000030A4000800803088002F201E
:10024000A00020180A30A018143020191E30A01960
:100250002830AB002F20A00020180130A01801305A
:1002600020190030A0190030AD000030A4000800B3
:10027000C03088002F20A00020180A30A0181430A9
:1002800020191E30A0192830B1000030A400080049
:1002900008108810081188110812881208132908FC
:1002A000150203192A142A185729950A5C292808C7
:1002B000150203192A10950325100130A700080024
:1002C000031383122E0888002F18732980302E0202
:1002D00003196C29AE0D79292D1C7229013088086B
:1002E000AE0D79292F140310AE0C01302E02031924
:1002F0002F10A5100130AC00080003138312300842
:100300008800301C9529301E872930128829301624
:10031000B01E8C29B0128D29B016301F91293013D0
:1003200092293017B00CB0179729B00CB0132511D3
:100330000130B200080000008501860187018801B4
:10034000890103178316890101308800031383167E
:100350000130850001308600003087008801F830C8
:1003600089000108083981009F010313831241307D
:100370009F00FF30880003301820880103301820C8
:1003800003138312B0308B000313831645308100B2
:100390000313831601308500031383160130860092
:1003A0000313831600308700031383160030880080
:1003B0000317831608140313831600309F000313DA
:1003C0008312C1309F000313831200309500031382
:1003D00083120030A8006430A9000130A60001306B
:1003E000AE000130AD001E30AB008030B0001E30DA
:1003F000B1000130A700AC00B20000002518482170
:0A040000A518602125197D21FD29B2
:04400E00E420FF3E6D
:00000001FF
